{
  "_format": "hh-sol-artifact-1",
  "contractName": "Assessment",
  "sourceName": "contracts/Assessment.sol",
  "abi": [
    {
      "inputs": [
        {
          "internalType": "uint256",
          "name": "initBalance",
          "type": "uint256"
        }
      ],
      "stateMutability": "payable",
      "type": "constructor"
    },
    {
      "inputs": [],
      "name": "balance",
      "outputs": [
        {
          "internalType": "uint256",
          "name": "",
          "type": "uint256"
        }
      ],
      "stateMutability": "view",
      "type": "function"
    },
    {
      "inputs": [
        {
          "internalType": "uint256",
          "name": "months",
          "type": "uint256"
        }
      ],
      "name": "calculateGymCost",
      "outputs": [],
      "stateMutability": "payable",
      "type": "function"
    },
    {
      "inputs": [],
      "name": "freeTshirt",
      "outputs": [
        {
          "internalType": "bool",
          "name": "",
          "type": "bool"
        }
      ],
      "stateMutability": "view",
      "type": "function"
    },
    {
      "inputs": [],
      "name": "getBalance",
      "outputs": [
        {
          "internalType": "uint256",
          "name": "",
          "type": "uint256"
        }
      ],
      "stateMutability": "view",
      "type": "function"
    },
    {
      "inputs": [],
      "name": "owner",
      "outputs": [
        {
          "internalType": "address payable",
          "name": "",
          "type": "address"
        }
      ],
      "stateMutability": "view",
      "type": "function"
    },
    {
      "inputs": [],
      "name": "tshirtEligibilty",
      "outputs": [
        {
          "internalType": "bool",
          "name": "",
          "type": "bool"
        }
      ],
      "stateMutability": "view",
      "type": "function"
    }
  ],
  "bytecode": "0x60806040526040516104f33803806104f3833981810160405281019061002591906100ad565b336000806101000a81548173ffffffffffffffffffffffffffffffffffffffff021916908373ffffffffffffffffffffffffffffffffffffffff16021790555080600181905550506100da565b600080fd5b6000819050919050565b61008a81610077565b811461009557600080fd5b50565b6000815190506100a781610081565b92915050565b6000602082840312156100c3576100c2610072565b5b60006100d184828501610098565b91505092915050565b61040a806100e96000396000f3fe6080604052600436106100555760003560e01c806312065fe01461005a57806379096cb0146100855780638da5cb5b146100b0578063ae578fd9146100db578063b69ef8a8146100f7578063f379e32c14610122575b600080fd5b34801561006657600080fd5b5061006f61014d565b60405161007c91906101f8565b60405180910390f35b34801561009157600080fd5b5061009a610157565b6040516100a7919061022e565b60405180910390f35b3480156100bc57600080fd5b506100c561016a565b6040516100d2919061028a565b60405180910390f35b6100f560048036038101906100f091906102d6565b61018e565b005b34801561010357600080fd5b5061010c6101aa565b60405161011991906101f8565b60405180910390f35b34801561012e57600080fd5b506101376101b0565b604051610144919061022e565b60405180910390f35b6000600154905090565b600260009054906101000a900460ff1681565b60008054906101000a900473ffffffffffffffffffffffffffffffffffffffff1681565b60006032905081816101a09190610332565b6001819055505050565b60015481565b60008060326001546101c291906103a3565b9050600381106101d65760019150506101dc565b60009150505b90565b6000819050919050565b6101f2816101df565b82525050565b600060208201905061020d60008301846101e9565b92915050565b60008115159050919050565b61022881610213565b82525050565b6000602082019050610243600083018461021f565b92915050565b600073ffffffffffffffffffffffffffffffffffffffff82169050919050565b600061027482610249565b9050919050565b61028481610269565b82525050565b600060208201905061029f600083018461027b565b92915050565b600080fd5b6102b3816101df565b81146102be57600080fd5b50565b6000813590506102d0816102aa565b92915050565b6000602082840312156102ec576102eb6102a5565b5b60006102fa848285016102c1565b91505092915050565b7f4e487b7100000000000000000000000000000000000000000000000000000000600052601160045260246000fd5b600061033d826101df565b9150610348836101df565b9250828202610356816101df565b9150828204841483151761036d5761036c610303565b5b5092915050565b7f4e487b7100000000000000000000000000000000000000000000000000000000600052601260045260246000fd5b60006103ae826101df565b91506103b9836101df565b9250826103c9576103c8610374565b5b82820490509291505056fea2646970667358221220f6ecb5974443dff7e3e27ea885c73377e328e78807a28c75c0dc835f8ffdfe8064736f6c63430008110033",
  "linkReferences": {},
  "deployedLinkReferences": {}
}